:020000041000EA
:1000000000B5324B212058609868022188439860DF
:10001000D860186158612E4B002199600221596106
:100020000121F02299502B49196001219960352056
:1000300000F044F80222904214D00621196600F024
:1000400034F8196E01211966002018661A6600F04E
:100050002CF8196E196E196E052000F02FF8012189
:100060000842F9D1002199601B49196000215960AB
:100070001A491B48016001219960EB211966A021F2
:10008000196600F012F800219960164914480160C1
:100090000121996001BC002800D000471248134993
:1000A000086003C880F30888084703B5996A0420EC
:1000B0000142FBD001200142F8D103BD02B5186610
:1000C0001866FFF7F2FF186E186E02BD00000240BE
:1000D000000000180000070000035F00212200005C
:1000E000F4000018222000A00001001008ED00E03C
:1000F00000000000000000000000000074B24E7A12
:1001000000200420F7010010C3010010C5010010F9
:10011000C1010010C1010010C1010010C101001097
:10012000C1010010C1010010C1010010C701001081
:10013000C1010010C1010010C9010010CB01001065
:10014000CD010010CD010010CD010010CD01001037
:10015000CD010010CD010010CD010010CD01001027
:10016000CD010010CD010010CD010010CD01001017
:10017000CD010010CD010010CD010010CD01001007
:10018000CD010010CD010010CD010010CD010010F7
:10019000CD010010CD010010CD010010CD010010E7
:1001A000CD010010CD010010CD010010CD010010D7
:1001B000CD010010CD010010CD010010CD010010C7
:1001C00000BE00BE00BE00BE00BE00BE00F04BF888
:1001D000103800BEF2EB8871B4880010D48800108B
:1001E0003402001090A31AE700202149086006C8D5
:1001F00081F3088810471F48006800282FD10DA4FC
:100200000ECC002902D000F012F8F9E71A491B4A77
:10021000002000E001C19142FCD1194988471949E9
:1002200088471949884700BEFDE701C901C29A42C3
:10023000FBD37047D4880010C00000209404002035
:10024000A88C00100000042000000420A88C0010DE
:1002500000100420001004200000000070470B482C
:1002600001F05CFD0047EFF30580C0B2704700006D
:1002700008ED00E0000000D09804002000160220E5
:10028000D913001045030010C91400105756000080
:1002900006005250ABB36053408600100600525027
:1002A000861C030250860010060052505422A29D64
:1002B0005886001005005250DE65F468A88C0010C6
:1002C000F8B5C04610B5064C2378002B07D1054B76
:1002D000002B02D0044800E000BF0123237010BDB2
:1002E000E00700200000000058850010044B10B506
:1002F000002B03D00349044800E000BF10BDC046F6
:1003000000000000E40700205885001070B5D025DB
:1003100080242D06A40432206C6107F01FFB3220DC
:10032000AC6107F01BFBF6E710B502F0A3F9044C33
:10033000200002F069F9642000F06AFCF8E7C0468A
:100340005885001010B5192082B000F025F8D02390
:1003500080221B0692045A6200240123802200930B
:10036000094900230194094807F06EFB022380220B
:100370000749009301940023064807F065FB07F046
:10038000BFF802B010BDC0467C8500100D03001000
:100390008C850010290300100123D022834012060F
:1003A00093629361094A830094464022634419682A
:1003B000C0004A40C02111408022520113431960FD
:1003C000034B9C46052360444360704704C00140D2
:1003D0000040014070B5EFF3108C72B60D4D2B68E4
:1003E000002BFCD0BFF35F8F0724CB08C618C05C7E
:1003F00001230C40A3401C000440034207D10343E7
:100400003370BFF35F8F2C608CF3108870BD1000C9
:1004100001F05CF82C0100D0F8B54746CE4688467E
:1004200080B5EFF3108C72B6214D2C68002CFCD0F7
:10043000BFF35F8F9A422CD8D4080727055D0619B1
:1004400001241740BC402C421FD0072101278946B8
:1004500009E0D408055D06194C4639001440A14056
:100460000C00294211D001329342F2D201204042C5
:10047000BFF35F8F00220E4B1A608CF310880028A8
:100480000FDBC0BCB946B046F8BD2C431000347039
:10049000EEE7BFF35F8F00232B608CF31088012001
:1004A00040424346002BECD0089801F00FF8C046BC
:1004B0002C0100D0024B18688007C00F7047C0465F
:1004C00000C006400021044B044ABFF35F8F02C303
:1004D0009342FAD17047C046000100D0800100D09D
:1004E000044A1078431CDBB2172B00D91023137079
:1004F0007047C0468803002010B50100024A034837
:10050000FFF768FF10BDC04698850010600D002001
:1005100000B5054B83B00100009318221F23034848
:10052000FFF77AFF03B000BDB8850010600D002012
:1005300083680B4810B58446614462440901120186
:100540009A18591854684B6801209C4201D802D06F
:100550000020C0B210BD12680B689A42F9D8F7E7C4
:10056000FFFFFF0F074810B50268EFF3108172B666
:100570001368002BFCD0BFF35F8F04F0D1FE002086
:10058000002110BDC8140020F8B557464E46454618
:10059000DE46E0B599460CAB1C780DAB1B78060027
:1005A00090469A460768002C11D1BC7B002C42D0A3
:1005B00065003B682D19033D59194B78BB73002B1F
:1005C00000D1FB7300238B704B700B7004E065004F
:1005D0003B682D19033D5919B2682A4B944642468F
:1005E000E3181B0163441A604A465A600A9A9A60EB
:1005F0000B9ADA6000238B704B700B707B7B9B46F1
:10060000002B2BD022005946B8687B6898473A687F
:10061000002816D05B4658465B005B445519033BE7
:10062000A870D118D35C002B00D06B705B460C70A7
:100630007B73A34513D0F0BCBB46B246A946A04687
:10064000F8BD5B465B005B44033BD3189C705119BB
:10065000525D002A00D05A705B460B707C73424694
:100660004B46307D00F022FC051E06D05346002B81
:1006700003D12100306800F071FE0E9B002BDAD010
:100680001D70D8E7FFFFFF0FF0B5DE464E46574618
:1006900045460023E0B58DB00A936B4B8200D358DA
:1006A0000B90994600239B464B46079300F09EFB18
:1006B000079C06000F006268EFF3108572B613689E
:1006C000002BFCD022000794BFF35F8F2468637B6C
:1006D0009946002B67D092685C4B90464B441B01B7
:1006E000984443461A685B6810001900801BB941A2
:1006F00000295FDD0B9800F0D9FB00230026984607
:1007000000279A46079C6368BFF35F8F5A461A60BA
:1007100085F310885346002B08D10028C6D10DB0B0
:10072000F0BCBB46B246A946A046F0BD0A9B414676
:1007300018024B461843D047089009916268EFF3BE
:10074000108572B61368002BFCD00794BFF35F8F3F
:100750000899099A002A48DB114303D0079B1B69BB
:10076000002B5DD1079B1B68D97B002907D04A006D
:10077000521819688C4649466244033A51704A46F9
:10078000DA734B46079A013BD168CA5C0132CA54FE
:100790005B46079A13615368BFF35F8F5A461A602E
:1007A00085F3108882E700230026984600279A46A2
:1007B0000020A7E7002901D100289BD100212000BB
:1007C00000F04EFD43461E685F689B68079A9A4694
:1007D0004346DB689846D3684B44013B1B780A9339
:1007E0001B020343136100208CE72369002BB9D05F
:1007F00033003C005B1A94411A002300A74219D829
:100800009F421BD059460491012103914946029110
:1008100041460191514607980091FFF7B5FEB7E7B1
:1008200000F0E4FA089A099B06000F0092197B4138
:100830009942E5D901225242D317E3E79642E1D922
:1008400001225242D317DDE708120020FFFFFF0FFD
:10085000F8B557464E464546DE46E0B5404D814622
:100860008A466A68EFF3108872B61368002BFCD0D2
:10087000BFF35F8F2E68B47B002C39D067003368DC
:100880003F19033FDB195A78B273002A00D1F27383
:10089000A968344A8C464946A21812016244116084
:1008A00051465160304991600021D1609970597072
:1008B0001970737B9B46002B35D022001900B0685D
:1008C000736898473268002820D05B4658465B0022
:1008D0005B44D719033BB870D118D35C002B00D010
:1008E0007B705B460C7073735C451DD0002626E060
:1008F0006B68BFF35F8F1C6088F310880120404253
:10090000F0BCBB46B246A946A046F8BD5B465B00BC
:100910005B44033BD3189C70D119D25D002A00D0F0
:100920005A705B460B7074734A465346287D00F03C
:10093000BDFA061EDAD02100286800F00FFDEB6832
:100940001B19013B19786B68BFF35F8F00221A6097
:1009500088F310880020002ED2D108022043CFE770
:100960008C030020FFFFFF0F6505001010B5124C2F
:100970006368002B04D00A21104800F025FB10BD4D
:1009800023000F4A1021206800F088FB032000F0AC
:1009900021FA032000F0FAFA03200A4900F040FA95
:1009A000FFF79EFD084B9C46032360442375074BCD
:1009B00080006060DC60DEE78C030020C81400204B
:1009C0003105001089060010400000340812002094
:1009D000004870478C030020F0B557464E46454608
:1009E000DE46E0B585B0019310AB1B78060003939B
:1009F00000239A46984600927268EFF3108972B607
:100A00001368002BFCD0BFF35F8F3568AC7B002CE4
:100A100049D067002B683F19033FDB195A78AA7346
:100A2000002A00D1EA73B1684F4A8C4600980199B8
:100A3000A21812016244106051600E9991600F99E2
:100A4000D16042469A705A701A706B7B9B46002B9D
:100A500045D022001900A8686B6898472A680028CA
:100A600030D05B4658465B005B44D719033BB870F7
:100A7000D118D35C002B00D07B705B460C706B737D
:100A80005C452DD0F3681B19013B18787368BFF3E0
:100A90005F8F42461A6089F310885346002B2CD191
:100AA0000002204307E07368BFF35F8F1C6089F387
:100AB00010880120404205B0F0BCBB46B246A946B2
:100AC000A046F0BD5B465B005B44033BD3189C70C3
:100AD000D119D25D002A00D05A705B460B706C733E
:100AE000307D009A019B00F0E1F982460028C9D0D0
:100AF0002100306800F032FCC4E7039B002B30D0AB
:100B00000E9B00200F999847030004000D000B4333
:100B100027D000290DDA0098019902000B00121B62
:100B2000AB41994213D818D000920193039B9A4687
:100B300062E700F05BF902000B00A4185D4100942D
:100B40000195A94203D8F1D100998A42EED9012337
:100B50005B42DC1700930194E8E700999142E3D9E6
:100B6000F5E70020A7E7C046FFFFFF0FF8B54746AF
:100B7000CE4604000D0080B596267642F71736194A
:100B80006F418F4214D811D000F030F932003B0091
:100B9000121A8B41002B15DC002B32D029002000CB
:100BA00000F02EF9C0BCB946B046F8BD8642EBD97C
:100BB0000026002700F01AF932003B00121A8B4180
:100BC000002BE9DD30003900FFF742FE0028E5DBAD
:100BD000B846B1460C4F0D4E736A984504D8B26AB8
:100BE0009145DBD99845D9D13A68EFF3108172B6B7
:100BF0001368002BFCD0BFF35F8F380004F05AFB62
:100C0000EAE7002ACAD0DDE7C8140020004005400A
:100C100070B5060000F0EAF8FA2204000D00002387
:100C200030000021920001F04BFB001969418D4218
:100C300005D802D0FFF79AFF70BD8442FAD901208F
:100C40004042C117F6E7C046F8B5CE46474680B5E4
:100C500006000C00FFF7FCFD00280CDC2D4B0020EB
:100C6000596A8C4203D89B6A0130B34245D3C0BC59
:100C7000B946B046F8BD20BF274D6A68EFF310872C
:100C800072B61368002BFCD0BFF35F8F2B68C1B224
:100C90009C465B7B8B4235D0FF2303405A00914634
:100CA00062461268994490464A464244033A927812
:100CB000002A1DD0EA68000A90464344013B1B7895
:100CC000C0B2834221D06B68BFF35F8F00221A60ED
:100CD00087F310880F4A0020536A9C42C7D8926A53
:100CE0000130B242C3D2E01A421E9041C0B2BEE708
:100CF0002B699842E7D12A61E5E7601A431E9841C3
:100D0000C0B2B4E7FF230340D4E7604600F026FBFF
:100D1000D9E7C046004005408C030020F0B5D64618
:100D20004F464646C0B5EFF305833F2213401800F7
:100D30001038EFF3108C72B6204D2A68002AFCD0D0
:100D4000BFF35F8F0122110081401D4C8846616313
:100D50001C4917000E788A463100C1400F400A42F4
:100D600009D1BFF35F8F2F608CF31088E0BCBA46C7
:100D7000B146A846F0BD14498200646A51588C42BD
:100D80000FD3124BD25843469E4353461E70BFF3B7
:100D90005F8F00232B608CF31088002AE6D09047E9
:100DA000E4E70B4A9B00904643441A681A60BFF37D
:100DB0005F8F00232B608CF31088D7E7280100D0C9
:100DC00000400540FE150220D4140020500C0020E5
:100DD000D03F054010B50100024A0348FFF7FAFA78
:100DE00010BDC046D4850010FB150220034B596A84
:100DF0000A00986A596A8A42FAD170470040054051
:100E0000064A536A9942FCD807D1044B02E05A6A59
:100E1000914202D19A6A8242F9D37047004005405C
:100E200070B504000D00EFF3108672B61A4A13680D
:100E3000002BFCD0BFF35F8F002D1BD0200000F0F3
:100E4000F3FC164981420AD0200000F0F5FC012194
:100E5000200000F0C3FC0123A340114A1360114B92
:100E6000A400E550BFF35F8F00220B4B1A6086F39E
:100E7000108870BD0B4BA200D5500122A2400A4938
:100E800020000B7893430B70044900F0FFFC002115
:100E9000200000F0A3FCE5E7280100D01D0D0010A4
:100EA00038600540500C0020FE150220F0B54F467A
:100EB000D6464646C0B507002F4C616A0D00A66AAB
:100EC000616AA942FAD18B4208D805D00120E0BC62
:100ED000BA46B146A846F0BDB242F7D9EFF3108A40
:100EE00072B6264801680029FCD0BFF35F8F012548
:100EF000BD402349204C8846097889462943C9B218
:100F00008C46414660460870391D1E48890065635D
:100F10000A51B9000B50216A0020294219D0616A98
:100F20000800A66A616A8142FAD18B4219D801D1C0
:100F3000B24216D8CC451DD00F4B1F201D625D63F9
:100F400001230740BB40104A1E38136043464A46FF
:100F50001A70BFF35F8F0022084B1A608AF3108863
:100F6000B5E70020BFF35F8F0022044B1A608AF3BD
:100F70001088ACE70120ECE700400540280100D0D4
:100F8000FE150220D414002080E200E0EFF3108C64
:100F900072B60A490B68002BFCD0BFF35F8F0123A8
:100FA0008340074A0748136202789A430270BFF3EE
:100FB0005F8F00230B608CF310887047280100D0EE
:100FC00000400540FE150220024B9C46614489000A
:100FD000016070474000003410B50400FFF780FA4C
:100FE00001002000FFF7F0FF01235B426360BFF3C5
:100FF0005F8F10BD10B50400FFF772FA01002000EA
:10100000FFF7E2FF01235B42636000232372BFF31B
:101010005F8F10BD10B504000120FFF779FA044B73
:101020009C46604480002060BFF35F8F10BDC046C7
:101030004000003470B5050014001600002915D0DA
:101040000C00002A12D080686B6898472968002835
:101050000ED073009B196200033B1219CB18033AA0
:101060009C7088188A5C002A15D10670200070BD1B
:1010700063001B197200033B9219CB18033A9E7050
:1010800088188A5C002A02D104703400EEE75A7096
:1010900004703400EAE75A700670E7E730B5836001
:1010A0000023CCB243730133047342608373C4736F
:1010B0000D000068012C06D9421C0133DBB213700D
:1010C00003329C42F9D1FF2129404B0059180023DB
:1010D00040180338437030BDF8B5CE464746060089
:1010E0000C0080B5002907D04D0003686D18033D42
:1010F0005A195778002F04D12000C0BCB946B04619
:10110000F8BD7900C919033988464344597889469E
:1011100000215970517073683A0021008068984727
:101120003368002814D042469A18947059195B5DB0
:10113000002B00D053700F70270049463000FFF796
:10114000CBFF390002003000FFF774FF0400D3E743
:10115000424641465D19AF709A185B5C002B00D087
:101160006B701470E9E7C046F0B557464546DE4659
:101170004E46E0B50D006B0001685B19DF1E0400F0
:10118000C85D83B00192CA1900284CD043001B18D7
:10119000033BCB185E78B446002E16D1019E002E7C
:1011A0003ED0E67B002E04D073009B19CB18033B86
:1011B0005D70E57300282FD10023537003B0F0BC9D
:1011C000BB46B246A946A046F0BD72006244033A4F
:1011D00089184A78904600224A7091465A70010058
:1011E00032002000FFF726FF43468246002B07D03F
:1011F0005B0021684344033BCB185A78002A16D180
:10120000424651462000FFF715FF2168019BCA198D
:10121000002BC6D10028CFD043001B18033BCB18AE
:1012200000219970C8E7019B002BBAD1C4E7500098
:101230008018033809184878834648464870587023
:1012400041462000FFF7F6FE594680462000FFF792
:1012500043FF414602002000FFF7ECFE8046CFE747
:10126000F0B557464546DE464E46E0B583B001919F
:10127000457B04006B0000685B19DF1EC15DC2196D
:1012800000294ED04B005B18033BC3185E78B44670
:10129000002E18D1019E002E40D0E67B002E04D0F7
:1012A00073009B19C318033B5D70E573002931D1AE
:1012B000002328005370617303B0F0BCBB46B246F4
:1012C000A946A046F0BD72006244033A80184278F5
:1012D00090460022427091465A7020003200FFF77B
:1012E000A9FE43468246002B07D05B002168434499
:1012F000033BCB185A78002A17D1424651462000AA
:10130000FFF798FE019B01002068C219002BC4D191
:101310000029CDD04B005B18033BC3180020987008
:10132000C6E7019B002BB8D1C2E7500080180338F4
:10133000091848788346484648705870414620004E
:10134000FFF778FE594680462000FFF7C5FE41466C
:1013500002002000FFF76EFE8046CEE770B5040065
:1013600000292CD0437B8B422ED0056848004018C2
:10137000033828188278002A21D053009B18033B99
:10138000EA5CEE188A4202D11BE0002A08D0530022
:101390009B18033BEB185A788A42F6D142785A7070
:1013A00000230122837043702000FFF7DDFE617B84
:1013B00002002000FFF73EFE6073012000E00020E5
:1013C00070BD43783370EBE701221900FFF7CCFEC4
:1013D00060730120F4E7C0462C4B2D4A70B51A60AB
:1013E0002C4A2D4B2D491A6014008B689C43FBD16D
:1013F0002B4D2C4EB54208D2013E761BB60808CDC7
:10140000984723000134B342F9D100F083F8264A0B
:10141000214B1A60214A9368DB43DB01DD09002B75
:10142000F9D14022214B224C224E9A675A671A6703
:10143000DA66B44208D223682000002B20D00C3496
:10144000FFF7D8FDB442F6D31B4E1C4CC022A16856
:10145000300000F0A5FFA660FFF734F800F05EFB57
:10146000FFF784FA164C174EB44208D2013E361BE1
:10147000B60808CC98472B0001359E42F9D170BDC3
:101480000834FFF7A9FDB442D5D3DDE700E0004002
:10149000BFCDFBFEFE7F3C0000F0004000C00040DE
:1014A0007804002088040020FFFFFF0100F00140C5
:1014B00068040020780400200000002000ED00E017
:1014C000880400209404002000BEFDE70FB400B59E
:1014D000084883B001F098F8049B002B07D005A9B9
:1014E0001800019100F0F4FB034801F08DF800BEF4
:1014F000FDE7C046F88500100886001010B50148C9
:10150000FFF7E4FF0C86001010B50148FFF7DEFF7F
:101510001C86001030B50C2083B000F069FBFEF78C
:10152000C9FF00280ED0944B944A1A605A609A6002
:10153000DA601A615A619A61DA611A62904A5A62F3
:1015400003B030BD8F4CA06700F0A6FB01228E4B8C
:101550001A60636C012BFCD103228C4B1A60894A00
:10156000936B012BFCD102240121894A8948053360
:10157000009400F0E5FA0523874A0121874800948A
:1015800000F0DEFA864B5A68FF2A02D88022520009
:101590005A608022784C7D4B21691201804D1A607F
:1015A000002905D0606900F0EBFB01300138FDD166
:1015B000E0217B4B02201A681140802252012A430D
:1015C00011601968484003210140116004219A68A4
:1015D0001142FCD08022802192012A43090111602E
:1015E000802252005A606F4B23616F4B5968FF296C
:1015F00000D85A600321644A6B4B116002399A6823
:101600001142FCD0E0201A681040802252011A4397
:1016100010601868484003210140022011606249AF
:101620008A681042FCD0802292011343802212016A
:101630001A6080225D4B52004A6063615C4B5968BE
:10164000FF2900D85A6080225A4BE1691201584D97
:101650001A60002905D0606900F092FB0130013862
:10166000FDD1E02252490B681A4080235B012B43D5
:101670001A60802380229B012B4312011A60802272
:101680003E4B52004A60E3614B4B5968FF2900D83A
:101690005A608022494B216A1201474D1A60002985
:1016A00005D0606900F06CFB01300138FDD1E0220B
:1016B00041490B681A4080235B012B431A60802349
:1016C00080229B012B4312011A60802380225B0041
:1016D0004B602A4BD2022362394B5968914200D2A7
:1016E0005A608022374B616A1201354D1A60002919
:1016F00005D0606900F044FB01300138FDD1E022E3
:101700002F490B681A4080235B012B431A6080230A
:1017100080229B012B4312011A608023DB024B6065
:10172000174B6362284B5A68FF2A02D88022520066
:101730005A608022254BA1691201234D1A600029AD
:1017400005D0606900F01CFB01300138FDD1E022BA
:101750001D490B681A4080235B012B431A608023CC
:1017600080229B012B4312011A6080235B004B6097
:101770000E4BA361E4E6C046640D0020006CDC0261
:101780001BB70000008000403CB0004030B000407B
:10179000002F68590080024000389C1C00C00240A5
:1017A00030800040001BB7003C8000404059730768
:1017B0005480004054B000406080004060B0004061
:1017C0006C8000406CB000404880004048B0004051
:1017D000014B8000C0587047640D002001238340F6
:1017E000002904D0034A1360034A13607047034A78
:1017F0001360FBE780E200E000E100E080E100E050
:1018000001228240034B1B6813405A1E9341D8B2F9
:101810007047C04600E100E001238340014A1360A5
:101820007047C04600E200E0024B10309B68800029
:10183000C058704700ED00E070B50D00EFF3108662
:1018400072B60F4A1368002BFCD0BFF35F8F0D4BAD
:1018500010309B6884001B590B4A934203D09D4271
:1018600001D0FFF751FE074B9B681D51BFF35F8FFF
:10187000BFF35F8F0022024B1A6086F3108870BDA1
:10188000240100D000ED00E0CD010010F0B5DE46EF
:1018900057464E464546E0B50C0083B0EFF3108A3C
:1018A00072B65A4A1368002BFCD0BFF35F8F102228
:1018B000914681444A46564B96009B689D59554B2C
:1018C00098469D4205D0A54216D0534FEB1B2F2BB7
:1018D00014D94F4B9B689D51BFF35F8FBFF35F8F50
:1018E00000224A4B1A608AF3108803B0F0BCBB4652
:1018F000B246A946A046F0BD1D00EAE70123834099
:101900009B465A46454B1B681A4000925A46444B28
:101910001A60BFF35F8FFEF7A6FC0190002803D08A
:10192000814501D0FFF7F0FD01232A009A43936817
:101930009C4208D15FE04B005B189B00FB18996844
:10194000A14211D01A00062151560029F3DA009B5A
:10195000002B05D05A46334B1A60304B1A60B8E75B
:101960005A462F4B1A60B4E706215956002921DB4D
:101970004A00501880003C188046A0689860E079C2
:10198000D871062020569871002824DBA488F81A04
:101990006405241544440019E0240005400D240288
:1019A000204398805218204B9200BF181A78197063
:1019B000BA71CCE70199002910D1FF3191711B490F
:1019C000918019490A789A71194ADB1B5B415A4385
:1019D000120D0A70BBE7BD200002E2E7154A164966
:1019E000D21A083A5002400D014399801349520817
:1019F0000A43DA80ABE70621515613000029B7DA13
:101A0000019A002AEAD14546DBE7C046240100D00E
:101A100000ED00E0CD010010B403002000E100E083
:101A200080E100E080E200E0FC15022000BDFFFF45
:101A3000AAAA0000EE03002000F0FFFF00F8FFFF5D
:101A4000032310B50400074A18409446C0009C4385
:101A5000FC3383406444226881409A4313000B4363
:101A6000236010BD00E400E0F8B501250400054343
:101A7000FEF7F9FBEFF3108C72B6214A1368002BC6
:101A8000FCD0BFF35F8F1F4E2100B7681E4A1F4B6B
:101A9000891A49414B431B0D59B28300F858A8429B
:101AA0001CD00623D3568B421CD01223D3568B4214
:101AB00022D01E23D3568B4220D02A23D356032074
:101AC0008B4210D0124B1A781970A271BFF35F8F3E
:101AD00000220B4B1A608CF31088F8BDB2680D48D9
:101AE000D050EFE7002043001B189B00D218FF23C3
:101AF0009371094B9380E5E70120F4E70220F2E7B8
:101B0000240100D000ED00E0B4030020AAAA0000E8
:101B1000FC150220CD01001000BDFFFF054B064A59
:101B20001360064A136053609360D360136153617E
:101B3000936170478080808000E400E004E400E06E
:101B4000F0B5C646040000B50C2090461F000E00FC
:101B500000F016F94101091A8D01691AC900091826
:101B60008901404600F00CF9069B3F041A032368E4
:101B70001743002B22DB1A4B1A4DE21853425A41ED
:101B800080235B019C461203174B62441A60174B7B
:101B90001A601100AB689943FBD1C022231D92014A
:101BA0001A4321232660A06013602368002BFCDA0F
:101BB0000823E760136080BCB846F0BD3F2322686D
:101BC0001340B342D7D1A3681B051B0D8342D2D16A
:101BD000EE22E368D2021340BB42CCD1EBE7C04611
:101BE0000040FDBF00C0004000E0004000F00040A9
:101BF0008023024A9B000343D36270470080054064
:101C000010B5140080221B4BD2051A6000281AD090
:101C10000123194A1843194BDA61194A42401A62E2
:101C2000596298628022134BD2051A601549164AF0
:101C30001160E022D2041A60002C07D18022134BDD
:101C400012061A6010BD0D4BD861EBE763011B1B38
:101C50009A008023121912015B049A4200D30C4AA5
:101C60000C4B1A60054B5A608022084BD2051A6053
:101C7000E8E7C04600B00540D3C007B0008005408B
:101C80002D3FF84FFCFF01000820014000A0054057
:101C9000FFFFFF0000120020AA23064A1B01136069
:101CA0002F230549D360054B19605368002BFCDADC
:101CB0007047C0460040024000B0FA000060024099
:101CC00010B5002800D110BD00F04EFCFBE7C04667
:101CD00010B5094A0300146884B0002C08D0012212
:101CE00000910648524203A9A047012004B010BD4C
:101CF00000F08AFC0020F9E7FC110020C11C001054
:101D000001480421014B1847000400203D1D00102C
:101D1000014B5B681847000000040020142310B535
:101D20000100188804331B88984710BD162310B58E
:101D30000100188802331B88984710BDF8B5474644
:101D4000CE4680B50F1E19D01423994604330400E3
:101D50000025012698464B461888434621681B8873
:101D6000984701C4431E9841013540420640AF42A6
:101D7000F1D13000C0BCB946B046F8BD0126F8E745
:101D8000114A936F9B0813D210665166002905D043
:101D9000FFE7FFE7FFE7516F106F704704B50028BA
:101DA00001D00020C04306F0B7FB002104BDC046AF
:101DB000F0B5146E556E576F166FFFF7E5FF14669A
:101DC000556657671667F0BD000000D094464E4A2E
:101DD000926F9208624601D230E0C046F0B54A4E9A
:101DE000B56F6D08FCD3346E756E776F366F00F08B
:101DF00025F89446444A1466556657671667624646
:101E0000F0BDC0469446404A926F9208624601D2A5
:101E100058E0C046F0B53C4EB56F6D08FCD3346E4B
:101E2000756E776F366F00F04DF89446364A14663B
:101E30005566576716676246F0BDC046002B24DB27
:101E400011D000293EDA00B5C943404200D101312A
:101E500000F038F8C943404200D10131DB4352421F
:101E600000D1013300BD002AEBD1002801D10029A7
:101E700005D00020C90FC90701D1C043410800B5F2
:101E800006F042FB0022002300BD00B500290ADB5A
:101E9000DB43524200D1013300F014F8C943404201
:101EA00000D1013100BDC943404200D10131DB43C3
:101EB000524200D1013300F005F8DB43524200D119
:101EC000013300BD002923D1002B18D1002A0CD0EA
:101ED000BC460D4F38667A6600210023FFE7FFE716
:101EE000FFE77A6F386F67467047002801D00748D0
:101EF000010000B506F008FB0022002300BD02002F
:101F00000B00002000217047000000D0FFFFFFFF02
:101F1000002B00D0BFE0130C28D1002AE7D080B4FA
:101F2000114F39667A66FFE7FFE730B4040C7B6F28
:101F3000396F1B0423433B667A66FFE7FFE7FFE741
:101F4000C04684B27B6F3D6F1B0423433B667A66B9
:101F5000FFE7FFE7C04600232C042D0C7A6F386F93
:101F600000196941B0BC7047000000D0F0B594463C
:101F70000025140E01D112020835140F01D11201EF
:101F80000435940F01D192000235D40F01D15200D3
:101F90000135D40B0134254F7C66254C3C660E0C74
:101FA00093B2FFE7FFE7FFE73C6F6643360C77032A
:101FB000BE467343DF0B5B04C01AB941130C734375
:101FC000DB18C91ACE086643360CB64493B2734385
:101FD0001F0F1B01C01AB941130C73431F0B1B05C4
:101FE000C01AB941860D8F023E436643360C092D57
:101FF00024DB520A7243801A7703460A6643360C82
:1020000016235B1BDE40DF40BF1964466643821B1C
:102010007046043506330100D940A840C01900D3EA
:102020000131A24206D20023F0BD0000000000D022
:10203000FFFFFFFF121B0130F3D3F1E709277F1BDE
:10204000FE406446A2B27243801A00D20139220CCB
:102050007243130C1204821A99410B007046043526
:1020600013370100F940A840801900D30131002B3B
:1020700002D1A2420AD2F0BD013000D30131121BBD
:10208000FAD2013BF8D1A24200D2F0BD013000D318
:102090000131121BF7E7F0B51C0C00D080E00CB446
:1020A00000251C0A04D11B02160E33431202083508
:1020B0001C0B04D11B01160F3343120104359C0B7A
:1020C00004D19B00960F334392000235DC0B02D102
:1020D00092185B4101351C00971864410134464F4A
:1020E0007C66464C3C660E0CFFE7FFE7FFE7C04608
:1020F0003C6F6643360C7703BE4697B27743C01BEE
:1021000000D20139C01B00D201399FB27743C91BED
:10211000C91B170C77437E04FF0B801BB941CE0807
:102120006643360C0C2D33DBB644120B1F053A43C5
:102130001B0B97B27743C01B00D201399FB2774384
:10214000C91B170C77433E043F0C801BB941860D19
:102150008F023E43664329277F1BFE400C3D774696
:10216000AF40BF1930BCA2B2ABB272437343801A06
:102170009941220C7243130C1204801A99410200F7
:102180000B000137001BA941F9D2781E0021F0BDD8
:102190000C277F1BFE4077467F0BAF40FF19E0E71F
:1021A00000245D1C07D0144F7D663966FFE7FFE70A
:1021B000FFE7FFE73C6F95B29EB265436643401B65
:1021C000B141150C1E0C6543664336042F0C3E438B
:1021D0002D04401BB141994204D202000B002000A3
:1021E0000021F0BD01D19042F7D3801A994101340A
:1021F0009942F2D3F6E70000000000D0FFFFFFFF96
:10220000132370B51D78012D15D010DD1C48FFF784
:102210008DFD1C4C01008022200000F0C1F8022D31
:1022200006D01948FFF77AFD184B186070BD154CA1
:10223000174BA364F5E7164B124C23606360A36051
:10224000E36023616361A361E36123626362A3626C
:10225000E36223636363A363E36323646364A3644C
:10226000E36423656365A365E36523666366A3662C
:10227000E36623676367A367E367A364D1E7C046A8
:1022800053440000A00500204C330000C41400207B
:102290009522001007B5604601880A0A0230DF2A3D
:1022A000FAD1C9B2820804D30288408800041043DE
:1022B00000E00068014A5050039007BDA0050020CF
:1022C00051434343C9188C46110C83B24B4310B49D
:1022D000040C614392B280B2504362431C041B0C55
:1022E000001910BC59411304120CC018514161442B
:1022F00070470000132310B512481C78FFF716FD35
:102300000100012C0AD003DD80220F4800F048F8BC
:102310000E48FFF703FD0E4B186010BD0A4C542207
:10232000200000F03DF80B4B6365A365E365236671
:102330006366A366E36623676367A367E367236255
:10234000E361E5E753460000A00600204C3300009F
:10235000C41400205923001007B5604601880A0AFA
:102360000230DF2AFAD1C9B2820804D30288408839
:102370000004104300E00068014A5050039007BD7C
:10238000A006002001480421014B1847100400203A
:102390003D1D0010014B1B68184700001004002071
:1023A000014B5B681847000010040020030010B5C3
:1023B000080011001B68984710BDC046F0B546469E
:1023C0004F46D646C0B5437C80460E001700002B12
:1023D00046D0002A3FDD4B1E9946244B01250024A0
:1023E00000209A460DE04B461B5D0D3B5A4253417F
:1023F000325DDBB20A2A0BD02B00013401359F423B
:102400001ADD002CEFD14346325D1B7C0A2AF3D142
:10241000002BF1D1A04204DA4346211A1B68301880
:102420009847434650461B680221984701342800CC
:102430002B0001359F42E4DC874204DD4346391A14
:102440001B6830189847F619013E33780D3B5A4205
:10245000534142461374E0BCBA46B146A846F0BDAB
:102460000368110030009847F5E7C04688860010E1
:10247000F0B5DE4657464E464546E0B583B00D0002
:1024800091461C00060002F0FDFE324B070001A938
:1024900018009A4606F048F88046002807D1019BAC
:1024A0009F4204D0504606F04FF8012398466B1C1B
:1024B00003D1300005F0E6FF0500002C27D1264FA0
:1024C000264B1C68002C18D04B46002B21D1244BE6
:1024D000994602E0E468002C0FD02368002BF9D065
:1024E0004B461B68002B01D0A342F3D120002A00E9
:1024F0003100B847E468002CEFD14346002B25D1CA
:1025000003B0F0BCBB46B246A946A046F0BD154F8D
:10251000D6E7134B99460A239B4602E0E468002C59
:10252000EBD02368002BF9D04B461B68002B01D061
:10253000A342F3D12A0031002000B8475A466B4627
:1025400020001A7101A90122B847E7E7504605F0BB
:10255000D3FFD5E770040020BD230010F40D002048
:10256000F80D0020AD230010F0B5CE46474680B5EB
:1025700083B06B468046DE1C307002F083FE1F4B3A
:10258000040001A91800994605F0CEFF071E20D0CF
:102590001B4B1C68002C27D01A4D02E0E468002C6D
:1025A0000FD02368002BF9D02B68002B01D0A34259
:1025B000F4D1200001223100FFF700FFE468002C75
:1025C000EFD1002F10D1404603B0C0BCB946B04691
:1025D000F0BD019B9C420BD0484605F0B5FF084B6F
:1025E00001271C68002CD7D1484605F085FFEAE793
:1025F000034B1C68002CCFD1E5E7C04670040020D7
:10260000F40D0020F80D002070B5040005F03AFF2D
:1026100000230100050001222000FFF729FF084BDD
:102620001C68002C06D06368002B05D09847E4682E
:10263000002CF8D1280070BDE468002CF3D1F9E734
:10264000F40D00200A4A1368002B05D10CE01A0093
:10265000DB680C32002B07D09842F8D1002902D158
:10266000C3681360C16070470029FCD01060FAE7AE
:10267000F40D002010B500F031F910BD7047C046D0
:102680000022014B1A707047FD1502204B79002083
:10269000FF2B0BD18B79002B08D1CB79012B05D1E6
:1026A000082A03D98A78024B09301A707047C0464D
:1026B000FD1502200120704770B5002915D115497C
:1026C0005379107909781B0203430020994200D006
:1026D00070BD5378012B0AD0022BF9D1002064225F
:1026E0000021FFF78DFA0120F2E70120F0E794784E
:1026F000D278050012021443D20502D5620A934033
:102700001D000548FFF70AFB7F2103002140280038
:102710009847C046FD150220554200000123037072
:10272000004870478C86001048780B788A78000241
:102730001843120410439622CB7810B51B060343AE
:10274000D200934200D010BD0348FFF7E7FA002102
:10275000030008009847C0465542000070B5184C69
:1027600082B006000D00200001A905F0DDFE002862
:1027700008D1D0231B061B68019A9A421CD0200066
:1027800005F0E2FE002001F003FE002807D103253A
:102790006D42200005F0B0FE280002B070BD0020A0
:1027A00001F00EFE0028F2D02A003100002001F0D6
:1027B00013FE051EEBD0ECE703256D42ECE7C046A7
:1027C000CC140020F0B5DE464F464646C0B5334B2C
:1027D00082B081460D00180001A99B4605F0A4FEB9
:1027E000002808D1D0231B061B68019A9A424FD0BB
:1027F000584605F0A9FE002001F0CAFD00283FD090
:102800000024002D41DD264E11E04B460020191911
:1028100001F056FE804600F049FE002001F014FE53
:10282000FEF7E4FA306071604444AC422DDA0020D7
:1028300001F060FE2F1B0200B84200DD3A00002AC2
:10284000E3D100F033FE002001F0FEFD002001F096
:102850009FFD002819D0002001F04CFE0028E4D193
:10286000FEF7C4FA326873680F00002184460D48F1
:1028700012184B419F4208D8D7D19445D5D904E0CE
:1028800000200021064B18605960584605F034FEC0
:1028900002B0E0BCBB46B146A846F0BDCC14002057
:1028A0009805002020A107001F2010B5FEF7B4FFF7
:1028B000FA200021800010BD10B5074C0021200037
:1028C00005F032FE002800D110BD00F0EFFD200021
:1028D00005F012FEF8E7C046CC14002070B51E4B80
:1028E00084B01B7801F0EEFF1F201C49FEF7A4FF07
:1028F00001211F20FEF772FF1948FEF76DFBFEF75E
:1029000067F80600FEF772FAFA2204000D000023B1
:10291000920012196B41994214D811D001210291F1
:10292000002101910F4930000091FEF755F8040095
:10293000631E9C41E4B2002808D1200004B070BDA1
:102940009042EBD901225242D317E7E70121064812
:10295000FFF778FEF1E7C046D0880010B9280010D4
:10296000CC140020A9280010200400200048704743
:102970004487001000487047F086001070B50400CE
:1029800017480378002B21D0002C06D1C12415480C
:10299000154BA4004380048070BD052C1DD8134B3B
:1029A0001048A400E558811C002304E001330A808C
:1029B0000231132B0ED0EA5CDCB2002AF6D1C02320
:1029C0000134E4B264009B001C43E4E7112102F0EF
:1029D0000FFAD9E7CA24A400DDE70020DCE7C046EF
:1029E000F4140220CC0D00200904000058870010C8
:1029F000F0B5982357464546DE464E466C4AE0B54C
:102A0000D75880253C006D02883B9A4683B02C4005
:102A10002F420FD001222321664B00205A54DA7036
:102A2000654901F073FA8022644B92021A65644B87
:102A30002C009A46FB0617D480235B011F4245D128
:102A40008023DB011F4200D088E080231B021F424D
:102A500000D091E0BC4200D0A5E003B0F0BCBB4682
:102A6000B246A946A046F0BD514B9B6D9846002B3F
:102A700027D0524B00249B4601239946434601260A
:102A8000B8461F0004E001347600E4B2202C17D0D1
:102A90003742F8D05B469E654B466508A3436D0000
:102AA000ED18444B6D019C466544280000F08AFBFC
:102AB00000286CD10134B743E4B27600002FE5D191
:102AC000474680235B0154461F42B9D01C43002374
:102AD000374A00211360384A3A489360D3603A4A33
:102AE0009360D360394A9360D360394A9360D3606E
:102AF000384A9360D360384A9360D360374A936012
:102B0000D360374A9360D360364A9360D360364AC5
:102B10009360D360354A9360D360354A9360D36045
:102B2000344A9360D360344A9360D360334A9360ED
:102B3000D360F0229200FFF72DFC314B314A002187
:102B40001A600020012201F0B7F980221B4B12030A
:102B50001A658023DB011F4200D176E701220421A0
:102B600000201C4301F018F91022144B1A65802331
:102B70001B021F4200D16DE70122052100201C43EA
:102B800001F00AF980220D4B12011A6562E74B46EB
:102B9000AA8AA97800200093002301F0DFF9280019
:102BA00000F04CFA86E7210017487940FEF78EFCCA
:102BB00000001150FC0D002000001050003011509A
:102BC000100001003C0E00200800105010001050B2
:102BD00018001050200010502800105030001050E5
:102BE0003800105040001050480010505000105055
:102BF00058001050600010506800105070001050C5
:102C000004120020800110507087001010B50121BF
:102C10000520FEF7E3FD10BD10B50022002102489B
:102C200000F034FA10BDC0461C0E00208022024B7A
:102C30005202DA647047C04600201150F0B5C64613
:102C400000B5060000F0D4F90C23354D0520AB6724
:102C50003449FEF7F1FD40239846334C40220021D1
:102C60002000FFF797FB43460127A3832121002380
:102C70002E4A6770A260136063545F3161844146DD
:102C8000A187023963542A4A2A496360E260A1623B
:102C90000B60E262284A63629360D360274A200097
:102CA0009360D360264A00219360D360254A403068
:102CB0009360D360244A9360D360244A9360D360C6
:102CC000234A9360D360234A9360D360224A93607F
:102CD000D360224A9360D360214A9360D360214A33
:102CE0009360D360204A9360D360204A9360D3609E
:102CF0001F4A9360D360F0229200FFF74BFB1D4BFD
:102D00001D4A30001A6080239B052F64EB649023DA
:102D10001A4AEA50FFF78AFF80BCB846F0BDC046A9
:102D200000001150F1290010FC0D0020840010500B
:102D3000000110508000105000001050080010508A
:102D40001000105018001050200010502800105093
:102D50003000105038001050400010504800105003
:102D60005000105058001050600010506800105073
:102D700070001050041200208001105010D001008B
:102D80000B785B0602D14B78052B00D070478A7810
:102D9000014B1A60FAE7C04600001150F0B5CE466C
:102DA0004746072380B548798E780A790340C8786A
:102DB0007F21800731401B02F40913434F00820F2B
:102DC000944691462A4D3A195201AA189670012646
:102DD00066405670604600269383D6709077CA008E
:102DE000012C29D023488446880162448446AC449F
:102DF000604682601660002929D01F4AC9009046AB
:102E0000414441603F223F3393434A46022A00D166
:102E10005B001A493F190A687F01D3180B60184BF1
:102E2000ED195340EA604A469006184380231B067A
:102E300018436B68186010E01248844688016244A9
:102E40008446AC4460468262166000290AD10023A1
:102E500064012D196B600C4BEB600120C0BCB946BE
:102E6000B046F0BD064AC900904641444162C9E7F8
:102E7000FC0D0020840010500400105004120020AB
:102E800000001050800010500001105000231C4A18
:102E900010B59360D3601B4A00219360D3601A4A37
:102EA0001A489360D3601A4A9360D360194A9360BA
:102EB000D360194A9360D360184A9360D360184A6C
:102EC0009360D360174A9360D360174A9360D360CE
:102ED000164A9360D360164A9360D360154A936094
:102EE000D360154A9360D360144A9360D360F02294
:102EF0009200FFF74FFA124B124A1A6010BDC046FB
:102F00000000105008001050100010503C0E00201F
:102F100018001050200010502800105030001050A1
:102F20003800105040001050480010505000105011
:102F30005800105060001050680010507000105081
:102F4000041200208001105010B57F200C0020409A
:102F50004000E409110000191A00034B4001C01899
:102F600000F094F8012010BDFC0D00207F2213001A
:102F700010B50B400A420BD0C909802258004018F6
:102F80000649400140181201002100F05DF810BD13
:102F900002220348C909521A8266EEE7FC0D00209E
:102FA000002011507F22100010B508400A4200D1C5
:102FB00010BD0023C9094000401804494001081809
:102FC00000220349C37000F03FF8F1E7FC0D002038
:102FD000FFF7FFFF7F21C309034A9B00014010B5A3
:102FE0009A580248FEF772FA3404002084870010D1
:102FF00080220D4B520410B51A600C4B0C491A601C
:1030000010008B689843FBD10A4C9C2200212000C1
:10301000FFF7C0F98022002152010748FFF7BAF9F3
:103020000923636710BDC04600E0004000F0004087
:1030300000C0004000001150000010500023037435
:10304000438283828361704710B58368002901D071
:103050001C682140002A11D08024E4001143224240
:103060000CD01A6822420BD1074A0A401A60FFE7C7
:10307000FFE7FFE7FFE7FFE7FFE78368196010BDA1
:103080008078FFF7A7FFC046FFFBFFFFF0B5C646FD
:10309000002300B5838201330374436804001E6873
:1030A000838B81611F1C934200D9171C8025BFB2FE
:1030B000D21B93B2E278ED0063823D43002A02D036
:1030C0009025AD013D4301204240E2706278002A24
:1030D00051D0002B1DD1A023DB011D43354B1B6CB0
:1030E000354B33408026B6051E436368A2681E60D8
:1030F00013685B055AD4314B2B401360FFE7FFE7A1
:10310000FFE7FFE7FFE7FFE7A3681D6080BCB84665
:10311000F0BD802252011543264A126C920703D457
:10312000A278D209012ADBD1A28B111C9A4200D9C4
:10313000191C80278AB2FF009B1A90461743E27839
:103140009BB26382002A03D090274146BF010F4300
:1031500001214A40E2706278002A19D0002B02D186
:103160008023DB011F43164B3F043340A026F605A6
:103170003D431E43B9E73A00E068FFF711F9A36940
:103180009C46802367441B021D43A761638AA0E716
:10319000E0684246A1694030FFF702F9A369434461
:1031A000A36180231B021F43638AD7E7A078FFF740
:1031B00011FFC04600001150FFFFFFAFFFFBFFFFF4
:1031C000FFFFFFDFF0B5C64600B5067C0400002E09
:1031D00000D1D3E083681A681D684378AD05AD0D52
:1031E000002B51D1838AEB189BB28382A18B8D4235
:1031F00007D20023638263681B68300080BCB84636
:10320000F0BD62681268520002D58D4200D175E0AF
:10321000638A002BF1D062681F1C16688B4200D9AC
:103220000F1C8025BFB2DB1BE2789BB2ED006382EE
:103230003D43002A02D09025AD013D4301214A4083
:10324000E2706278002A68D0002B2AD1A023DB012B
:103250001D434F4B1B6C4F4B33408026B6051E431E
:103260006368A2681E6013685B0500D58DE04A4B59
:103270002B401360FFE7FFE7FFE7FFE7FFE7FFE70C
:10328000A36800261D60B8E72A00C1688069FFF7BF
:1032900087F8A38AA269EB189BB25219A382A26194
:1032A000A4E7802252011543394A126C920703D4D5
:1032B000A278D209012ACED1A28B111C9A423FD802
:1032C00080278AB2FF009B1A90461743E2789BB290
:1032D0006382002A2FD101214A40E2706278002ADD
:1032E0003ED0002B02D18023DB011F432B4B3F0438
:1032F0003340A026F6053D431E43B1E7A26815689A
:103300006278AD01AD0D002A1CD1EB18A3828D426D
:1033100000D37DE7002363826FE73A00A169E0688C
:10332000FFF73EF8A3699C46802367441B021D43B8
:10333000A761638A88E790274146BF010F43CAE728
:10334000191CBDE7E1682A004031A069FFF728F8A1
:10335000A38AA18BEB18A382A3695B19A361D6E7AB
:10336000E0684246A1694030FFF71AF8A369434478
:10337000A36180231B021F43638AB2E77F23817806
:10338000074A08481940FEF7A1F8A078FFF722FE87
:1033900000001150FFFFFFAFFFFBFFFFFFFFFFDF4C
:1033A00034040020A4870010024B5878431E984133
:1033B000C0B27047340B0020024B18784007C00F92
:1033C0007047C046340B0020014B18787047C04648
:1033D000F9150220F8B54746CE4680B5294F0500BD
:1033E0003B78002B04D00120C0BCB946B046F8BDE4
:1033F000532200212448FEF7CDFF244C2000FDF786
:10340000EBFD234B1C60234C20001C30FDF702FE1B
:10341000200001F0A1FC204B204E1C60204B984660
:10342000002B04D03000FFF779F91E4B186042469C
:1034300000243378002A1DD01B4A9046194A914631
:103440009C4210D31BD14346984701343378E4B2F1
:10345000A342F5D22800FFF7F1FB2800FFF7D6FBC7
:1034600001233B70BFE74A46630012681B19DB006B
:103470009B58E9E701F04AF83378002BEAD00023A3
:103480001B68FFDEF9150220340B0020EC0A002037
:10349000880B00203C0400208C0B0020F815022033
:1034A0001D270010FC0700200D450010F0B5DE467A
:1034B00057464E464546E0B58BB001F009FA002864
:1034C00000D144E1C24BC34E9B4607AC3568EA6964
:1034D000EFF3108172B61368002BFCD0BFF35F8F3F
:1034E00029622800210001F0ABFAEA692B6ABFF3D8
:1034F0005F8F0021116083F31088002800D126E13E
:103500006378082BE2D85A469B00D3589F466368DD
:10351000002BDBD0A0689847D8E77F222179AE4BFB
:103520000A405500C8095B191B18180001273030E4
:10353000C578BD43C570C5780337BD43C570002A43
:1035400000D10BE1A54ADB7C002A06D0A44A127800
:10355000934200D291E19B1ADBB2002B00D0F6E03F
:10356000A04D62792078A368A847AFE701229A4F5F
:1035700001213B78042013433B703323FA5C8A43D8
:10358000FA54FA5C8243FA540133FA5C8A43FA54DF
:10359000FA5C8243FA54237800209A4600F066FED3
:1035A000602223791A40602A0DD0402A00D1F2E02F
:1035B000DB06DB0E012B00D16AE1022B00D121E1F9
:1035C000002B00D1F6E020780021FFF7CFFC80210E
:1035D0002078FFF7CBFC79E77F4B1B78DB0700D423
:1035E00074E7814B002B00D170E700E000BF6DE76E
:1035F000794B1A78D20700D468E77C4A002A00D1B8
:1036000064E718780007C00F00E000BF5EE7744D64
:10361000724A00272B78002A00D1B6E0744A9046FF
:103620009F4208D39F4200D0B2E00137FFB29F42D1
:1036300000D94BE7F6D2414609687A008C46D21988
:10364000D20062445269002AEFD0207890470137B7
:103650002B78FFB29F42E3D938E72378604D5F4A69
:10366000984600272B78002A00D186E0614A9146CF
:103670005F4A92462A0045469046BB425ED800D03B
:1036800078E04B4628009847434601371B78FFB245
:10369000BB42F2D2504D532200212800FEF77AFEA1
:1036A0001022FF21E81CFEF775FE28002022FF21D2
:1036B0001330FEF76FFE00F0CFFD4F4B002B00D113
:1036C00004E700E000BF01E72378454D434A9846F0
:1036D00000272B78002A47D0464A9146444A924612
:1036E0002A00454690469F421FD343D14B462800AF
:1036F0009847434601371B78FFB2BB42F3D2364DA1
:10370000532200212800FEF745FE1022FF21E81C6D
:10371000FEF740FE28002022FF211330FEF73AFE7C
:1037200000F09AFD2379AB70D0E6524612687B0018
:103730009446DB19DB0063445B68D8E752461268A5
:103740007B009446DB19DB0063445B689AE70BB0AF
:10375000F0BCBB46B246A946A046F0BD62792078CF
:10376000A36800F097FDB1E6404600F00DFF2B780E
:10377000002BC4D000235B68FFDE404600F004FF4E
:103780002B78002B00D185E7F4E7002B00D19DE6D4
:1037900000235B69FFDE1948002800D113E700F021
:1037A00065FD0021504608AA00E000BF002800D0B7
:1037B0008CE608E7202A00D19FE0002A00D002E72B
:1037C0006379092B00D9FEE60D4A9B00D3589F462A
:1037D000D88700108C0B0020340B00201D27001010
:1037E000F81502207D4700100000000000000000D6
:1037F000FC070020894500100000000000000000C8
:10380000FC8700107023217A0B4200D0DBE60F33D7
:103810000B405B00F818CD090093C14B4019C07CE8
:10382000002B06D0BF4B1B78984200D288E0C01A0C
:10383000C0B200287ED1002A00D015E1BA4B019316
:10384000637998460223424699469A43012A00D159
:103850000EE14346002B00D0B5E6009B06AAFB18FC
:103860005D193035EB7802329B07DB0F1380504631
:10387000022308A900F092FC28E65A00D318AB4AAC
:10388000DB001268D318002B00D160E71D6968E6E1
:10389000237A0F2B00D996E6A14AFB18DB78002A81
:1038A00005D0A04A1278934264D39B1ADBB2002B56
:1038B00000D088E69E489C4D00F0D8FC0021504680
:1038C000EB6808AA9847002800D0FFE560221500A1
:1038D00023791D401A4200D075E663790A3B012B1B
:1038E00000D970E600F0C2FC63790A2B00D1EEE04B
:1038F000504608A900F03AFCE8E5237A0F2B00D9DE
:1039000061E6874AFB18DB78002A06D0854A1278E0
:10391000934200D2D0E09B1ADBB2002B00D052E6DB
:103920008348814D00F0A2FC00215046EB6808AAB4
:1039300098473BE7002A00D045E6002301937FE744
:1039400043009C46794B60441B68C0009C460300C2
:1039500063440193002A00D172E7002B00D132E6C4
:10396000D86800F083FC019B00215046DB6808AA60
:1039700098471BE76D4A5D00EB181568DB00ED18F2
:10398000002D00D11FE6E86896E7E388012B00D000
:1039900019E608223B785046934308A93B7000F093
:1039A000E5FB93E50220397806AB9A1C8B06890863
:1039B000DB0F01400B4359E7A37901931A007B7891
:1039C0009A4207D07B78002B00D01EE1019B002B90
:1039D00000D0B3E0019B504608A97B7000F0C6FB05
:1039E00074E57B7806AA023213705046012308A9B9
:1039F00000F0D4FB6AE5E088030AC0B20F2B00D9BF
:103A0000E1E54C499A008A58974608A800F034FC32
:103A10005046A179FFF700F902223B7813433B702F
:103A200054E5E388012B00D0CDE508223B785046D1
:103A3000134308A93B7000F099FB47E5022B00D126
:103A400094E13D4B002B00D1BDE500E000BF02003A
:103A5000002A00D1B7E5D37891781B020B4350467A
:103A600008A900F09BFBA1E62F4B3148019378E7B2
:103A7000E288002A09D14346012B3DD0009BFB1868
:103A80005D193035EB789B072AD5019D002D00D1BB
:103A90001CE5EB681800009300F0E8FBEB680021E0
:103AA00008AA50469847002000F0E0FB3423FB5C56
:103AB000DB0700D50AE51BE71C4A5D00EB1815681B
:103AC000DB00ED18002D00D17DE5E8682AE706ABA4
:103AD0009A1C5046012308A9157000F05FFBF5E41D
:103AE0005046FFF743FA0222EB7813430122EB70B2
:103AF000EB781343EB70C8E7009BFB185D1930357A
:103B0000EB789B07C1D55046FFF74CFA4A46EB7855
:103B100093434246EB70EB789343EB70B5E7C046B6
:103B20001D270010F815022064880010FC070020F3
:103B3000994600102488001000000000581EC0B2F2
:103B4000FEF718FF002800D13DE543780493022BCF
:103B500000D038E50121C3799A115B110A400B406E
:103B600052011B0113433A782F318A4313433B70B0
:103B700009239946C37882781B021343C3188144F2
:103B80000393039B4B4500D8E9E04B4601225B7849
:103B900000920B2B07D14B46DB7800934B461B78EA
:103BA00099444B465B78042B00D00CE54A46039BB6
:103BB00000259B1A9BB202936E4A6F4B1B78002A1A
:103BC00016D162E0AB4271D16C4A6D4B90464946CA
:103BD0005046029A98478446082802D9029A82429F
:103BE00069D2654B01351B78EDB2AB4200D2EAE4F5
:103BF000AB42E7D9634A6B0012685B199046DB0061
:103C00009844434605929B68E1E75046FFF73EF92A
:103C1000BB78594D574A009300212B78002A2DD0AC
:103C2000584A90462A000D0091469D421DD300D06F
:103C3000A0E5554B504698474B4601351B78EDB2F1
:103C4000AB42F2D2532200213800FEF7A3FB102230
:103C5000FF21F81CFEF79EFB38002022FF211330C5
:103C6000FEF798FB009BBB70B0E6424612686B0003
:103C700094465B19DB0063445B68DBE7504600F069
:103C800083FC2B78002BDDD074E5029B49461A009B
:103C90005046984600F08EFC8446082801D94045DD
:103CA00007D9354B1B78002B00D18CE400239B688F
:103CB000FFDE324B9846009B012B48D0009B002B27
:103CC00010D04B469978002305E0D5700133009A57
:103CD000DBB2934206D2CA18D2B2BA18D078FF2803
:103CE000F3D070E43800E0462B00494662461330BA
:103CF00000F02EFE204BC1441B78AB4200D340E7BE
:103D000061E4224B002B00D15DE400E000BF020023
:103D1000A1E6FEF72BFE1223020008A9504600F090
:103D20003DFA43E51A4B002B00D14CE400E000BF04
:103D3000021E00D147E45046137808A900F02EFA7D
:103D400034E52189FEF71AFE021EF4D13BE4424617
:103D50000B4B92689A42B4D1049B0093B1E70D4B90
:103D6000002B00D136E600E000BF33E6FEF702FE8E
:103D700002006DE61D270010F8150220648800106F
:103D8000B5450010FC070020894500100000000028
:103D9000000000000000000030B587B005000C00F6
:103DA0000C2200216846FEF7F5FA6B461D705C7028
:103DB000042C4FD009D8022C34D0032C19D13C4B01
:103DC0001A78520758D407B030BD052C11D1384BA2
:103DD0001A78D207F7D504211A788A431A70354B1E
:103DE0001C68E269EFF3108172B61368002B09D1E9
:103DF000FBE7304B1C68E269EFF3108172B6136881
:103E0000002BFCD0BFF35F8F21626946200000F0D9
:103E1000E5FEE269236ABFF35F8F0021116083F33F
:103E20001088D0E70121224B1A788A431A701A7839
:103E30000331A2431A7000225A701A788A431A700A
:103E40001C4B1C68E269EFF3108172B61368002BFB
:103E5000D8D1FBE7164B1A78D207B4D504211A78CB
:103E60000A431A70134B1C68E269EFF3108172B6B3
:103E70001368002BC6D1FBE704211A7803A88A43F4
:103E80001A7000210C22FEF785FA6B466A461D73F4
:103E900005235373074B1C68E269EFF3108172B678
:103EA0001368002BFCD0BFF35F8F216203A9ADE73D
:103EB000340B00208C0B002070B584B001AC0600E0
:103EC0000D000C2200212000FEF764FA012363702C
:103ED0000D4B25711D682670EA69EFF3108372B6E9
:103EE00011680029FCD0BFF35F8F2B6221002800EE
:103EF00000F074FEEA692B6ABFF35F8F0021116046
:103F000083F3108804B070BD8C0B0020002330B503
:103F100085B001AD6B8028700633082202A86B7053
:103F2000FEF73EFA0C4B1C68E269EFF3108372B6A1
:103F300011680029FCD0BFF35F8F236229002000A5
:103F400000F04CFEE269236ABFF35F8F002111602D
:103F500083F3108805B030BD8C0B0020F0B5C64649
:103F6000804600B584B001AC0F0016000021082285
:103F700020001D00FEF70EFA4346237007236370EE
:103F80000F4B65711D682771A660EA69EFF3108316
:103F900072B611680029FCD0BFF35F8F2B6221003D
:103FA000280000F01BFEEA692B6ABFF35F8F002137
:103FB000116083F3108804B080BCB846F0BDC046E1
:103FC0008C0B0020F0B54646D6464F468046C0B51D
:103FD0000C0015001E00002A2ED070239946184BA5
:103FE00000279A466378052B0FD1E1788907890F5E
:103FF000B1420AD14A46A3781A4206D1534620005C
:10400000997800F069FC002805D10020E0BCBA4690
:10401000B146A846F0BD21004046FEF7BFFE00288D
:10402000F3D0A378DA09012A08D0089A137023780C
:104030000137E418AF42D5DB0120E7E7099AF5E73D
:10404000340B0020702270B58B7805000C001A42EA
:1040500001D0002070BD064B2000997800F03CFC98
:104060000028F6D021002800FEF798FEF2E7C046AF
:10407000340B002070B57F240C406300144CC90938
:10408000E41864183034E378DB07DD0F002B18D117
:10409000E3785B0701D5280070BD01210D4E494230
:1040A000306804F049FAE378DB07DD0F002B0AD112
:1040B000E3785B0708D40422E37801251343E37017
:1040C00002E00025E7E70025306804F015FAE2E792
:1040D000340B0020880B002070B50C0001210F4D1F
:1040E0004942286804F028FA7F2121404B000C49FE
:1040F000E409C91809193031CB780024DB0708D44A
:10410000CB785B07DC0F002B03DA0422CB789343D8
:10411000CB70286804F0F0F9200070BD880B0020F7
:10412000340B002070B57F250F4C0D406D006419D5
:104130000600C80924183034E5780020ED0700D5C2
:1041400070BD0125E0782843E0703000FEF7FCFEEA
:104150000028F5D10122E3789343E370E37803323A
:104160009343E370ECE7C046340B002070B50A4E71
:104170000500300008220C00FEF712F900237F2111
:10418000F3602278B36091425B412800D90100229C
:104190000023FFF7C7FF70BDD80A0020F8B5CE4650
:1041A000474691462A4E80B50822070030000D0090
:1041B0009846FEF7F5F84B46B3600023F381EC799F
:1041C000A97924020C43231C444500D943469AB2E2
:1041D0009046B381002C13D0002A1FD04B46002BF1
:1041E00034D0131C402A1FD89BB2984633787F2BBB
:1041F00020D80021174A43463800FFF793FF09E013
:104200007F222B7838009A42644100230022E1018A
:10421000FFF788FFC0BCB946B046F8BD33787F2BA6
:1042200011D980210022E6E740239BB298463378DB
:104230007F2BDED9074C424649462000FEF7B0F8F6
:1042400080212200D7E700210022D4E70020E1E707
:10425000D80A0020F40A002010B5142200210248D8
:10426000FEF798F810BDC046D80A0020014B18612F
:104270007047C046D80A002010B5054C010008223E
:104280002000FEF78DF80023A360E36010BDC04658
:10429000D80A0020F8B53B4C1D0023780600DA0947
:1042A000C9098A4213D00020002D00D0F8BD364B3A
:1042B000002B03D021003000FEF762FD2369002BA4
:1042C00044D022000221300098470120EEE77F2BE6
:1042D00006D8A068002837D02A002C49FEF760F8DD
:1042E000A368E28959195219E38892B2E281A16068
:1042F000934214D03F2D12D9A589A81A071C80B269
:1043000040282FD82378BFB27F2B2DD80021AA4276
:1043100035D01E4A3B003000FFF704FFC6E7236993
:10432000002B05D0220001213000984700280FD033
:104330007F220021237830009A4249410023002245
:10434000C901FFF7EFFEB1E70020AFE70120ADE7BD
:1043500000213000FEF70AFE30008021FEF706FE45
:104360000120A3E74027CDE7AA4207D0074C3A0037
:104370002000FEF715F880212200CBE780210022E3
:10438000C8E7C046D80A0020812D0010F40A00209A
:1043900010B50400FFF708F8002801D1002010BD77
:1043A000FFF70AF80028F9D1B620800044430348FB
:1043B0000019037901201840F1E7C04600080020E9
:1043C000B6239B00584310B5024B1030C01800F0C4
:1043D00011FB10BD00080020F0B5B625AD00454327
:1043E0002C00C646174F1034E41900B5200092B2D5
:1043F00000F074FB0600200000F014FB3F2803D8F7
:10440000300080BCB846F0BD7B190020D9789846B2
:10441000FFF730FE0028F3D0200000F003FB3F2818
:104420000AD996239B00EA184346D219D97800206E
:104430004023FFF777FEE3E743460020D978FFF7F4
:104440004BFEDDE700080020F8B50400FEF7ACFFE6
:10445000002801D10020F8BDFEF7AEFF0028F9D1F9
:10446000B620800044432500144E2C35AD19280099
:1044700000F0C0FA0028EDD037190020B978FFF716
:10448000F9FD0028E6D0A6239B009C466444A419AD
:1044900021002800402200F021FBB978051E08D039
:1044A000030022000020FFF73DFE0028D2D02800A4
:1044B000D1E70020FFF710FECCE7C046000800203F
:1044C00070B5B624A4004443094B2C34E41805000D
:1044D00092B2200000F0C0FB0600200000F08AFA33
:1044E0003F2801D8300070BD2800FFF7ADFFF9E785
:1044F00000080020B6239B00584310B5024B2C3017
:10450000C01800F08FFA10BD00080020B622F0B5E8
:104510001B4C83B0002120009200FDF73BFFFF23DE
:104520006371184B80260025E380012708232100B2
:104530002000760023733200278148310095073B25
:10454000103000F01BFA2100200049313200FF3109
:10455000012300972C3000F011FA92239B00E618FB
:104560003000FCF739FD94239B00A662E61830006A
:104570006562FCF731FD2664656403B0F0BDC0469A
:104580000008002000C2FFFF10B5094C05220021E1
:104590002000FDF7FFFE20002C34103000F0DCFB83
:1045A000200000F0D9FB0121200000F0FBFB10BD32
:1045B00000080020F0B54B79060083B0022B02D131
:1045C0008B79022B03D00025280003B0F0BD2F4FBC
:1045D000BB78002BF7D18B7809253B700C780C1930
:1045E0006378242B0BD1082A02D80FE0AA420DD3FE
:1045F0002378E418ED186378ADB2242BF6D0052BA0
:1046000020D0042B02D163790A2B2ED0204C20001D
:1046100000F008FA3F28D7D92600103E0020F17894
:10462000FFF728FD0028CFD0200000F0FBF93F283D
:1046300016D992239B00E218F17840230020FFF75F
:1046400071FDC1E721003000FFF7FCFC0028BAD063
:10465000A3787B702378ED18E4186378ADB2D0E7C7
:10466000F1780020FFF738FDAEE70A4B2778019379
:1046700001330093022202233000E119FFF7A2FC6C
:104680000028A0D00E35ED19ADB2BFE7000800201C
:104690001008002002080020F8B5602314001278EA
:1046A000050013400020202B12D12F4A637927796F
:1046B00016781B023B439E420AD16378222B27D0F7
:1046C00007D8202B17D0212B02D100293DD0012063
:1046D000F8BD232BFCD100293FD00229F7D1234B71
:1046E000002BF4D0E178A37809020020194300E000
:1046F00000BF0120ECE7002927D00229E7D11C4B9D
:10470000002BE4D00020911DFEF70EF80120DFE71A
:10471000002922D00229DAD101252E00A378E478DD
:10472000013924021C43147126402C3210007140C0
:1047300000F038FB0F4B002BC9D06208002031007D
:104740002A4000E000BF0120C2E707232100280023
:10475000094AFFF723FD0120BAE721002800FFF7EF
:1047600005FD0120B4E7C04600080020000000005D
:10477000292700100000000006080020F8B5574661
:104780004E464546DE46E0B5494F8046FA780C0075
:104790001E008A4264D19AB296239B00FD18102312
:1047A0009B46BB442900584600F056FA414BD94677
:1047B000002B18D07B79D946FF2B14D0002E12D0B5
:1047C000AA19924603E0013555450CD07B792A7829
:1047D0009A42F8D1484600F01DF90028F3D17979C2
:1047E00000E000BFEFE7344B002B04D0484600F058
:1047F00011F9002852D0484600F014F93F2834D867
:104800004A46103A9378A34207D001242000F0BC16
:10481000BB46B246A946A046F8BD284B002B02D0A5
:10482000002000E000BF0020FFF70EFE0028ECD1C2
:10483000234D280000F0DEF80028E6D1002EE4D059
:10484000B306E2D12C3D4046A978FFF713FC041EC5
:10485000DBD0002300224046A978FFF763FCD5E7B0
:10486000BB788B42D9D00024D0E74D46103D0020C4
:10487000E978FFF7FFFB002801D1AB78C3E7484692
:1048800000F0D0F83F280CD992229200402300205B
:10489000E9784A44FFF746FCAB78B4E700E000BF94
:1048A000A9E70020E978FFF717FCAB78ABE7C04633
:1048B00000080020000000000000000000000000D0
:1048C0002C08002010B50020FEF784FD10BDC04666
:1048D00010B5FEF779FD10BD072210B544790379B4
:1048E000224012021A43C3789B079B0F022B05D06C
:1048F000032B15D00020012B08D010BD02291CD09D
:104900000020402393424041C0B2F6E702394B42B7
:1049100059410D4B9C46614491424041C0B2ECE785
:1049200002394B425941F023002049429B00194073
:10493000403191424041C0B2DFE7044B9C466244A3
:1049400053425A41D0B2D8E7FF03000000FEFFFFF8
:10495000F0B5002A11D000247F274D78052D06D10F
:104960003D008E7835406D00F6094519AB550D7840
:104970006419A4B24919A242EFD8F0BDF0B5C646F9
:1049800000B5150006AA1E001378802204000F004F
:104990009846120295422AD84069002803D0012186
:1049A000494203F0C9FDA069002803D00121494212
:1049B00003F0C2FD4346A5806D00ADB223726B1EAD
:1049C000A381002360696D42E3812760E6806581F1
:1049D0002382002801D003F08FFDA0690124002864
:1049E00001D003F089FD200080BCB846F0BD002452
:1049F000F9E7C046C189028A8B1A9BB2914202D262
:104A000042899B1A9BB28288101C9A4200D9181CBA
:104A100080B270470300C0891B8AC01A43425841C4
:104A2000C0B2704710B5C489018A8388621A92B2F5
:104A30008C4202D24089121A92B2981A80B210BDEA
:104A400070B5040080690E00002803D0012149429E
:104A500003F072FDE189228A88B28D1A93B2ADB259
:104A6000914202D26289AD1AADB2A288AA4207D29F
:104A7000904225D261895118411A89B215002182CC
:104A8000002D02D122E09B1A9BB29A42FBD9E28808
:104A9000216853433000C918FDF782FC228A0125A2
:104AA000531C9BB29A4214D9002362899B189BB273
:104AB000A0692382002801D003F01EFD280070BDEC
:104AC000811AA58989B28D42D8D2D3E70025238ADD
:104AD0009BB2A2899A42EBD2E7E7C046F0B54F46B7
:104AE0004646D6460500806988469146C0B50028EE
:104AF00003D00121494203F01FFDEA892B8A91B2BC
:104B0000D61A9CB2B6B29A4202D26B89F61AB6B2E3
:104B1000AF88B74209D2B94254D26B89FB18CB1A7D
:104B20009BB23E002B822C8AA4B2002E50D04B4662
:104B3000B14545D89EB2A74203D8E41BA4B2A74210
:104B4000FBD9EB88381B190099462B6861439C46BA
:104B500080B26144864225D94B46584383B21A003D
:104B600040469A46FDF71CFC4B464046F71BE419AD
:104B70005C432968A2B25044FDF712FC2A8A9319BB
:104B80009BB29A4218D96A899B189BB2A8692B825A
:104B9000002801D003F0B0FC3000E0BCBA46B146BA
:104BA000A846F0BD4A4640467243FDF7F9FB2A8A03
:104BB00093199BB29A42E6D8AA899A42E6D2E2E7D2
:104BC000331CB7E7CB1BAA899BB29A42A9D2A4E7B0
:104BD0002B8AAA899BB29A42D8D2D4E7F8B50400AE
:104BE00040690E00002803D00121494203F0A4FCD3
:104BF000E289218A95B2531A9BB2914202D9628905
:104C00009B1A9BB2A2889A4221D02B00954203D3D3
:104C10009B1A9BB29A42FBD9E28821685343C81879
:104C20003100FDF7BDFB6B1C9BB29D420BD9628925
:104C30009B189BB260690127E381002801D003F033
:104C40005BFC3800F8BDA2899A42F3D2EFE7277ADD
:104C5000002FDAD1F5E7C046F8B545464E46DE46A8
:104C600057468846E0B50500161E5AD04069002810
:104C700003D00121494203F05FFCEF892B7A298A96
:104C8000BFB289B2002B3BD17A1AAB8892B28F4265
:104C900002D26989521A92B29A1A111C92B2B24285
:104CA00053D8EA888EB29246F21A92B291463C00EC
:104CB0009F4203D3E41AA4B29C42FBD250462A6816
:104CC000604394461B1B9BB2524660449E422AD8C6
:104CD00041467243FDF764FBF3199BB29F421CD817
:104CE000AA899A4219D36869EB81002801D003F0A0
:104CF00003FC3000F0BCBB46B246A946A046F8BD56
:104D0000EA88AB8892469E4221D3F61A5643002287
:104D1000B0440F001E009146C9E76A899B189BB2F8
:104D2000E1E70026E5E753439BB21A0041469B4664
:104D3000FDF736FB2200534641464A445A43286851
:104D400092B25944FDF72CFBC6E7311CA9E7F21AD1
:104D500092B29146ABE7C04610B504004069002806
:104D600003D00121494203F0E7FBA069002803D0EA
:104D70000121494203F0E0FB0023E3812382A38861
:104D800060695B009BB25A1E5B42A281638100286E
:104D900001D003F0B1FBA069002801D003F0ACFB07
:104DA000012010BD70B5040040690D00002803D03B
:104DB0000121494203F0C0FBA069002803D0012172
:104DC000494203F0B9FB60692572002801D003F065
:104DD00093FBA069002801D003F08EFB012070BD79
:104DE00010B5024800F0D8F810BDC046BC14002031
:104DF00030B54B1E012900D1A7E0664A11780D118C
:104E00002C0030349F2900D9A2E00470012B00D17E
:104E1000BEE00F21147821400C003034092900DD58
:104E200098E04470022B00D1B2E05478251129009B
:104E300030319F2C00D990E08170032B00D1A7E086
:104E40000F2121400C003034092900DD87E0C470B7
:104E5000042B00D19CE094782511290030319F2C3F
:104E600000D97FE00171052B00D191E00F21214095
:104E70000C003034092900DD76E04471062B00D1A6
:104E800086E0D4782511290030319F2C00D96EE0BE
:104E90008171072B00D17BE00F2121400C003034C1
:104EA000092966DCC471082B00D171E01479251141
:104EB000290030319F2C5FD80172092B68D00F2157
:104EC00021400C003034092958DC44720A2B5FD091
:104ED00054792511290030319F2C52D881720B2B27
:104EE00056D00F2121400C00303409294BDCC4720C
:104EF0000C2B4DD094792511290030319F2C00D9ED
:104F0000073101730D2B43D00F2121400C003034A9
:104F1000092901DD37310C0044730E2B38D0D179CB
:104F20000C11220030329F2900D9073282730F2BD7
:104F30002ED00F220A4011003731092A01DC30320D
:104F40001100C173102B23D010300023037030BD2B
:104F500007345AE737310C0063E707316CE7373124
:104F60000C0074E707317DE737310C0085E7073126
:104F70008EE737310C0095E707319DE737310C009C
:104F8000A3E70731AAE737310C00C4720C2BB1D16B
:104F9000C018DAE7BC14002030B5002589B0040041
:104FA0000922002101A80095FDF7F4F9092200214A
:104FB00005A80495FDF7EEF94B236A466846137081
:104FC00004A90D2203F090FA15210822200069445B
:104FD000FDF7E6F909B030BD7047C046000000009B
:104FE0000BA10CC9126892009B581868203080F3FE
:104FF0000988022080F31488BFF36F8F3FBCAE4650
:1050000008BC04BC62B61847C046C046C046C0468D
:10501000000000D018120020D0231B061A6DD20702
:1050200004D501219A6D1A6D1142FBD1D023FF22C4
:105030001B061A658022024B52051A607047C04653
:1050400004ED00E00000000000000000000000008F
:10505000EFF309811AA00CC8106880001B181868AB
:1050600020390160F0C144464D4656465F46F0C1C6
:10507000146E556E566F176F3039F0C1106808B551
:1050800072B601F0E9FA62B60CBC1168086810301B
:10509000F0C8A046A946B246BB4680F309880D2257
:1050A00012073038F0C81466556656671767F0C89F
:1050B0001847C046C046C046C046C046C046C04667
:1050C000000000D01812002010B5EFF3108472B663
:1050D00002F01EF802F074FA002803D08022044B7C
:1050E00052051A6002F022FE84F3108810BDC046FB
:1050F00004ED00E010B5FCF701FAC04610B58024BD
:10510000031F64041C60043B19600349043B1960DD
:10511000143B40381A6010BDF55000108022044B3B
:1051200052051A60BFF34F8FBFF36F8F7047C046B1
:1051300004ED00E0D0231B061B6808499B005A5869
:10514000002A08D00020585005495B58BFF35F8FF4
:10515000106083F3108862B67047C046B414002014
:10516000EC140220D02300221B065A657047C0466B
:10517000002310B5084A094C052023601360FCF792
:1051800027FBFA218900FCF7FBFD054B013818606D
:105190000723236010BDC04618E000E010E000E0E7
:1051A00014E000E070B5244B1A78D0231B061B686E
:1051B0009A4232D0FF230220204A1B041168404249
:1051C0000B4313601E4902F0CBFF05201D494042EE
:1051D00002F0C6FFD023FF221B061A651A6DD20704
:1051E00004D501219A6D1A6D1142FBD1D0252D06EF
:1051F0002C68FF210F342000FCF722FC200012490C
:10520000FCF71AFB01212000FCF7E8FAFFF7E8FEA3
:10521000286801F021FAFCF771F9FFF7A9FFFF23D5
:105220000120064A1B06116840420B4313600749E0
:1052300002F096FFBEE7C0466004002020ED00E0CB
:1052400051500010D94F001019500010C9500010D3
:1052500010B5EFF3108372B6FFF7A4FF10B50E2060
:10526000FBF74AF90F20FBF747F90022034B0448EC
:105270001A7002F0E3FFFFF795FFC04660040020BC
:105280005152001010B50A4B1B78FF2B03D1D023CD
:105290001B06186810BDFAF7E6FF002805D0D023DA
:1052A0001B061B684000C018F4E701F037FEF1E769
:1052B0006004002000B5154B83B01B78FF2B09D18B
:1052C0000368BFF35F8F00221A6081F3108820BF4C
:1052D00003B000BDD0231B061A6803680C48920077
:1052E00013500C4811500C4A0221944663449B1001
:1052F000FF319940094B0122186801235B4200935A
:10530000090A002300F01EF9E2E7C046600400200D
:10531000B4140020EC14022000FFFF2F70150220AF
:1053200000B51C4A0B00127883B0FF2A29D01A4915
:1053300002688C46022162449210FF319140090AB2
:1053400040BF0068BFF35F8F0022026083F31088C4
:10535000EFF30583DBB2002B05D1104B186800F08A
:105360004DF903B000BD0D4B0192186801AA00F081
:105370008DF9019B002BF4D08022094B52051A6055
:10538000EFE740BF0268BFF35F8F0021116083F336
:105390001088E6E76004002000FFFF2F7015022050
:1053A00004ED00E0F0B51D00314B07001B780E0046
:1053B000140083B0FF2B4ED0FBF718FD22002B000A
:1053C000121A8B4101212B4849428018594100296A
:1053D00021DC1CD03B68BFF35F8F00221A6086F38C
:1053E0001088254B5A6A95420AD98022234B5205D0
:1053F0001A60BFF34F8FBFF36F8F002003B0F0BD73
:105400009B6A0120A342F9D29542F7D1EDE7FA2336
:105410009B009842DED3FA2200239200FCF7D6FCD0
:10542000031ED7D0D0221206116815483A688900A9
:105430000A5014480E5014498C46022162449210BE
:10544000FF319140114A090A10680093012200239C
:1054500000F078F8C5E70368BFF35F8F00221A6099
:1054600081F3108820002900FBF7EEFBC6E7C04659
:105470006004002018FCFFFF0040054004ED00E040
:10548000B4140020EC14022000FFFF2F701502203E
:1054900010B500F04BF8014B186010BD70150220DC
:1054A000F8B5DE4657464E464546E0B505000F00C6
:1054B000060001F047F829682C6939430C36296049
:1054C000A6422AD0002398468023DB049B468023F3
:1054D0005B049A4680239B0499460EE00B420AD057
:1054E00057463A4202D042461A4390464B46194329
:1054F00002F06CFA2968A6420DD020005F460268CF
:10550000646813021B0A3A42E8D01F000F40BB42F6
:10551000E6D0A642F1D143469943296002F012FA3F
:10552000F0BCBB46B246A946A046F8BD10B51C204B
:1055300002F0AAFE041E03D0002308C000F0B0F859
:10554000200010BDF0B5C646060000B50D0090461F
:105550001F0000F0F7FF3468002F0AD125420CD05D
:105560004346002B0CD02300AB43336002F0EAF932
:1055700008E02B0023409D42F2D0069B002B05D172
:1055800002F0E0F9200080BCB846F0BD4346002B95
:1055900016D180210023C904002F00D11900069ADA
:1055A0002943301D01F070FA02F0CCF900281CD01C
:1055B00002F0D6FB0400830107D52402240AE1E7A8
:1055C000A0218023C9045B04E6E701F0A1FD346853
:1055D000002F0DD12C4205D04346002B02D02300D2
:1055E000AB43336002F0A2FBE7E701F077FDDFE7B2
:1055F00023002B409D42F5D1EEE7C046F8B5DE46CC
:1056000057464E464546E0B505000F00060000F03F
:1056100099FF29682C6939430C362960A6422AD0A3
:10562000002398468023DB049B4680235B049A4634
:1056300080239B0499460EE019420AD057463A420D
:1056400002D042461A4390464B46194302F0BEF937
:105650002968A6420DD020005F46026864681302E4
:105660001B0A3A42E8D00F001F409F42E6D0A642F4
:10567000F1D143469943296002F064F92868F0BCEF
:10568000BB46B246A946A046F8BDC04610B51300B9
:105690000A000100014802F04FFD10BDA1540010A6
:1056A0000300083301224360C360036100235242B8
:1056B000826003607047C046002303617047C046A4
:1056C00043689A684B608A609A6851609960036881
:1056D0000861013303607047030030B50C6808337C
:1056E000621C0DD01A005B681D68A542FAD94B6098
:1056F000996003688A60013351600861036030BDBE
:1057000002695368F3E7C0460369416882688A60AA
:1057100051605968814206D0002202611A68013A3C
:105720001A60186870475A60F6E7C046F0B5DE4662
:105730004E4657464546E0B585B0060001F0E8FC08
:105740004523F45C64B2002C21DD213B99462133D2
:105750009A46B14409E0AB6BEA6B0396934245D39A
:10576000013CE3B264B2002B11D0B56C002DF2D134
:10577000736A002B0BD0484601F02AFA0028EFD0BC
:1057800001F0C2FB013CE3B264B2002BEDD1452332
:10579000FF22F25402F0CAFA01F0BAFC4423F45C8E
:1057A00064B2002C16DD3500103504E0013CE2B295
:1057B00064B2002A0ED03369002B0BD0280001F010
:1057C00007FA0028F2D0013C01F09EFBE2B264B27D
:1057D000002AF0D14423FF22F25402F0A7FA05B0C8
:1057E000F0BCBB46B246A946A046F0BD53462A6C63
:1057F000EF5CAB6B7FB29846002A14D12B68019303
:10580000002B2BD000239B4643460133AB637B1C0C
:1058100018D0534601377FB2EF545B46002B9FD020
:1058200001F072FBAEE7686803A9FCF7B9FD2A6CCA
:105830006B689446AA6863446B609342E2D32B681A
:105840006B60DFE76B6A002BE7D02800243001F0A3
:10585000BFF90028E1D001F057FB93E7A86801F0F9
:1058600011FC019B8346AB60CEE7C046F0B5C6464F
:1058700000B5846C82B0A36BE26B0026019093426A
:1058800004D3300002B080BCB846F0BD4523226C82
:10589000E55CA76B6DB2002A16D0606801A9FCF721
:1058A0007FFD226C63689446A26863446360934200
:1058B0000ED3236863600137A7636B1C0DD04523AB
:1058C00001356DB2E554DCE723689846002B0FD014
:1058D00001370026A7636B1CF1D1636A002BD0D07F
:1058E0002000243001F074F90028CAD00126C8E74E
:1058F000A06801F0C7FB43460600A360DBE7C04693
:10590000F8B506000800704354300D00170002F08F
:10591000BBFC041E25D00300002D24D12360256488
:10592000E66301F0F5FB226CE36B21685343C81872
:105930009B1ACB18E3600025FF234422A0602000BF
:105940006160A563A3540132A3541030FFF7A8FE91
:1059500020002430FFF7A4FE02F0E8F95023E754BA
:10596000A5642000F8BD5433D8E7C046F0B5CE4654
:10597000474604001E00002380B585B09946019279
:10598000884601F0C5FBA36BE26B002744259342D8
:1059900037D3022E72D0019B002B00D18AE0002F5A
:1059A00068D002F0C3F900F0CDFD01F0B1FB625DFB
:1059B00052B2531C01D14B4663554523E25C52B2AF
:1059C000013201D14A46E25402F0B0F901A902A81D
:1059D00001F0AAF9002800D074E001F099FBA36B54
:1059E000E26B934234D002F0A1F92000FFF79EFE53
:1059F00001F0A8FF012701F08BFBA36BE26B934240
:105A0000C7D2226CA76BA56B002A3CD04146002E62
:105A100000D084E06068FCF7C3FC226C63689446A5
:105A2000A26863446360934201D323686360A36CFC
:105A30000135A563002B34D1636A002B36D02000DA
:105A4000243001F0C5F8002830D001F047FB2DE0EC
:105A500002F06CF920000199103000F0A5FF200041
:105A6000FFF764FE01F06EFF0028C3D101F036FBA2
:105A70000127C0E702A801F04BF992E7226CA76B5F
:105A8000A56B002A25D1236800209846002B40D022
:105A9000A36C0135A563002B35D0022E01D1002F58
:105AA00004D12000FFF7E2FE0028CED102F03EF93B
:105AB000012002E002F03AF9002005B0C0BCB9466E
:105AC000B046F0BD2000FFF731FE01F03BFF0020A3
:105AD000F3E74146E068FCF763FCE168236C5A4257
